:020000040000FA
:2000000000000420191E0000411E0000431E0000451E0000471E0000491E00000000000096
:200020000000000000000000000000004B1E00004D1E0000000000004F1E0000511E000010
:20004000751B0000F9100000BD060000531E0000531E0000531E000055170000531E000014
:2000600015060000531E0000531E00008D130000531E000049190000531E0000531E00002E
:2000800071190000531E0000531E0000531E0000531E0000531E0000531E0000531E0000BF
:2000A000531E0000531E0000531E0000531E0000531E0000531E000000000000000000009A
:2000C000531E0000531E0000531E0000531E0000531E0000531E0000531E0000531E000098
:2000E000531E0000531E0000531E00000000000000000000531E000000000000531E0000CB
:200100000000000000000000000000000000000000000000000000000000000000000000DF
:200120000000000000000000000000000000000000000000000000000000000000000000BF
:2001400000000000000000000000000000000000000000000000000000000000000000009F
:2001600000000000000000000000000000000000000000000000000000000000000000007F
:2001800000000000000000000000000000000000000000000000000000000000000000005F
:2001A00000000000000000000000000000000000000000000000000000000000000000003F
:2001C00000000000000000000000000000000000000000000000000000000000000000001F
:2001E0000000000000000000000000000000000000000000000000000000000000000000FF
:2002000001F0FF01102A2BDB10F0070F08D010F8013B013A8B422DD010F0070F42B3F6D1A4
:20022000F0B441EA012141EA014122F007047FF000070023F0E80256083C85EA010586EA51
:20024000010685FA47F5A3FA87F586FA47F6A5FA87F68EB9EED1F0BC01F0FF0102F007024C
:2002600032B110F8013B013A83EA010313B1F8D10020704701387047002D06BF35460338AF
:20028000073815F0010F07D1013015F4807F02BF013015F4C03F0130F0BC0138704700BF73
:2002A00010B5054C237833B9044B13B10448AFF300800123237010BDA402002000000000D6
:2002C0009C66000008B5034B1BB103490348AFF3008008BD00000000A80200209C660000FB
:2002E000A3F5803A704700BF174B002B08BF134B9D46FFF7F5FF00218B460F461348144AB7
:20030000121A05F0A1FD0E4B002B00D098470D4B002B00D098470020002104000D000D4812
:20032000002802D00C48AFF3008000F02BF82000290001F08FFD00F011F800BF00000800B4
:20034000000000000000000000000420A4020020A4100020000000000000000008B5074BD0
:20036000044613B10021AFF30080054B1868836A03B19847204600F029F800BF00000000A6
:200380007C61000070B50D4D0D4C641BA4100026A64209D10B4D0C4C05F0E4FE641BA410D3
:2003A0000026A64205D170BD55F8043B98470136EEE755F8043B98470136F2E79C0200207C
:2003C0009C0200209C020020A0020020FEE700BF08B502F073FDBDE8084002F0B5BD00BF0C
:2003E00000B585B002F0D2FC002002F057FB00F037F902F021FE4FF08053F420CE21362251
:200400008DF808008DF809108DF80A20D3F8A8208DF80B200422D3F8A43001930DEB02016B
:2004200003A805F029FD08220DEB0201024805F023FD05B05DF804FB600700200148002178
:2004400002F0A2B81002002010B500F091F90446BFF35F8F02F050F900B930BFBFF35F8F72
:200460002046BDE8104000F087B900BF802803D1024B0022C3F804250120704700C000408B
:200480000120704730B5144D01232B6083B000F0B9F86FF003031C1A03E000F0B3F8C4429C
:2004A00003D5D5F80031002BF7D00B4B0022C3F80021D3F80825D3F80835920548BF6FEA29
:2004C0008353054A48BF6FEA9353012101935160019803B030BD00BF00C0004070B570B10C
:2004E0000E46451E002404E0A64206D000F0A4F8013415F8010F0028F6D1204670BD0446D5
:20050000FBE700BF042800D0704708B5054A13680133136001F00CFF00B908BDBDE80840F2
:2005200001F0DCBEC402002000B5134B83B000221A6001F027FCC0B9002001F03FFC0F4B35
:200540000F4A93E803000090ADF804100D48694600F0B2FE60B901210A4800F001FF094809
:2005600000F0F2FE03B05DF804FB00F0FFFDE3E700F0FCFDEFE700BFC4020020D861000041
:2005800005050000E0610000014B1868704700BFC402002010B4164B16490022C3F8402126
:2005A00083B0D3F840210192019AD3F8102522F00F0242F00802C3F81025D3F8082542F035
:2005C0000302C3F80825D3F804254FF480344FF4807022F00302C3F80425C3F80443C1F85A
:2005E0008001086001221A6003B05DF8044B70470080004000E100E0014BC3F840057047E3
:2006000000800040024B01225A64D3F84405704700800040074BD3F8402102B9704700224F
:2006200082B0C3F84021D3F840310193019B02B002F0A2B800800040084A82B0C2F81C05E3
:20064000D2F81C31002BFBD00023C2F81C31D2F81C310193019B02B0704700BF0020004094
:2006600010B4144B144C4FF0A04100220320C3F80025C1F818074020C1F80805C1F82027B4
:2006800008200621C3F8244583B0C3F86C25C3F81405C3F80C15C3F81C21D3F81C21019225
:2006A000019804210122C3F800159A6003B05DF8044B70470020004000E0D701074B0022F5
:2006C000C3F8082182B0D3F808210192019A044AD3F818051368C0B202B01847002000404E
:2006E000C80200204FF0A0434FF4F0310022C3F80815C3F80C25704700B50F4A07CA85B0D9
:2007000001AB83E807000D49184601F047F948B90B4801F07DF960B90A4B01221A7005B04B
:200720005DF804FB00F022FD054801F071F90028F2D000F01BFDEFE7E8610000E5060000B2
:200740008810002089100020024B1B7803B9704701F050B989100020034B1B7803B97047CE
:20076000024B187801F07AB98910002088100020EFF3108072B6704780F31088704700BF35
:2007800000F01F0301219940C0F3471002F078BB08B500F09BFE00B108BDBDE8084000F084
:2007A0004DBE00BF30B583B00223002501F01F018DF8063012F00C03ADF80450144641EAB2
:2007C000401508D0042B26D0082B28D00C2B04BF03238DF8043014F0030306D0022B16D0D0
:2007E000012B04BF03238DF805300F4A01A9284600F076FE230604D4284600F071FF03B0D3
:2008000030BD0121284600F0FBFE03B030BD01238DF80530E9E701238DF80430DBE7022360
:200820008DF80430D7E700BF8107000001F01F0141EA40101F28CABF054B4FF0A04300F03C
:200840001F00D3F8101521FA00F000F00100704700030050024B0022C3F8FC2F0120704756
:2008600000100040A1B118280ED8DFE800F00F180D0D2D24635E4741130D0D0D807C7874FC
:200880000D706C683D3A3600012070470020704702207047384B1B780B6000207047374BF8
:2008A000374AD3F80835A2FB03239B080A33DBB200200B607047334BDB7800200860002BB9
:2008C000E4D001230B6070472E4B1B7800200860002BDBD004230B6070477D230B60002040
:2008E000704700200860704710230B6000207047254B93F900300B60002070471F4A012392
:2009000082B05361D2F81C31002BFBD00020C2F81C01D2F81C310193019BD2F8483503F06C
:200920007F035B420B6002B07047164B5B790B6000207047134B5B780B60002070470A23AD
:200940000B600020704720230B600020704703230B600020704708230B6000207047D82300
:200960000B60002070471A230B60002070470B230B600020704700BF8A100020001000407D
:20098000CDCCCCCCD00100208B1000200120704730B583B0FFF7ECFEBFF35F8F1D4B1B780F
:2009A000ABB11D4B1D4902224FF0FF34C1F80843C3F88021C3F88020BFF34F8FBFF36F8F7C
:2009C000BFF35F8F03B0BDE83040FFF7D5BE03F0FF02124B1049C3F83021D3F8304101949F
:2009E000019CC3F83421D3F8342100924FF0FF34009DC3F8084302224FF44054C1F880212E
:200A0000C3F804430A60BFF35F8F03B0BDE83040FFF7B2BED001002000E100E0001000409A
:200A2000144BD3F8FC0F28B1D3F85025D2B2032A01D000207047104A127802F0FF0072B117
:200A40000E4A1278053A7A2AF3D8D3F83021002AEFD1D3F83401B0FA80F040097047074A95
:200A60001378053B7A2BE5D892F8800080F00100704700BF00100040D0010020CC02002029
:200A8000074A1378053B7A2B08D8064BD3F8303113B992F8800070470120704700207047FC
:200AA000CC020020001000400C2801D001207047042A05D121B1034B1B680B600020704732
:200AC000022070475003002070B51B4CD4F85055EDB2032D82B02AD0184B194A1949C4F8EE
:200AE0000415C3F8102502F5DE421432C3F8142501264FF00062C3F80465C3F80425FFF7D6
:200B000047FFD4F8003243F01003C4F80032D4F80032022D43F40023C4F8003209D00023EC
:200B2000C4F85831D4F858310193019B666002B070BDA66002B070BD0010004000F00140E0
:200B400038110040CC02002070B5314B314D0024C3F8384184B0D3F838210092009AC3F868
:200B60000C41D3F80C210192019AC3F83441D3F834210292029AC3F83041D3F83031297889
:200B80000393039B4B1F7A2B38D88C1E2246691C05F072F92B195B783F2B2DD89B00DBB25D
:200BA0001D4E1B4A3370D2F848151C4B01F07F01494249B21970042089B202F08BFB317834
:200BC000032002F087FB164B2A7816491A74D1F84C055860D1F8481599605200DA60586851
:200BE00002381860812200210A4805F02DF9FFF76BFF204604B070BDFF23D1E78122214687
:200C0000284605F021F9FFF75FFF204604B070BD00100040CC0200208A1000208B10002009
:200C200050030020008000407D2910B50C4609D801460A48A31C00F8013B224605F01CF9E5
:200C4000002010BD064A0749074802F0A5FF7D222146064802F0A0FF012010BD64030020C8
:200C6000F461000004620000086200001862000030B5264C264A0F23C4F8103593780A3B8B
:200C800003EB8303C4F808351179D079937952791B0643EA00230B4385B043EA02430021B6
:200CA0001C48C4F86C3640F20225C4F834550D22C4F83805C4F83C15684605F0C5F89DF8AA
:200CC00007309DF801009DF802109DF804205B0743EA002343EA014343EA825343F0C0636C
:200CE00043F00803C4F814359DF80A309DF809201B0443EA022343F07F0340F20122C4F8ED
:200D00001835C4F8502605B030BD00BF00100040D00100202110010008B5084BD3F8FC2F7A
:200D20001AB1FFF7D1FE012008BD0122C3F8FC2FFFF79EFFFFF7C8FE012008BD00100040AF
:200D400010B51C491C4C1D484FF0804200230B6023704B6003708B6082B0CB600B74C2F8DB
:200D60000031D2F800310093012300991360D2F80031002BFBD00024C2F80041D2F8003179
:200D8000019321460E48019B01F0FEFB214681220C4805F059F80C4B0122C3F8FC2FFFF782
:200DA00067FF0A4A1378DBB21370FFF7F1FD204602B010BD500300208B1000208A1000202D
:200DC000C0010020CC02002000100040D001002000B51B4BD3F8FC2F85B052B3FFF774FE50
:200DE000174B0022C3F84821D3F8481103910399C3F84421D3F8441102910299C3F84C2161
:200E0000D3F84C21019201220199DA6202E0D3F844211AB9D3F84821002AF8D0084BD3F8E5
:200E20004801D3F84431B0FA80F0400905B05DF804FB0122C3F8FC2FFFF71AFFCEE700BF31
:200E40000010004010B50388044663B140F2C93293420DD1822901D0012010BD134A137862
:200E6000053B7A2B08D940F2C9332380012010BD00230380032010BD0D4BD3F830311BB9FF
:200E800092F88030002BEED0FFF766FC02F004F902F0D0F98021FFF757FE0028E3DD80B227
:200EA00002F0C2F9034BDB689847DCE7CC02002000100040B064000010B57D2884B05AD830
:200EC000334BD3F8FC2F002A49D0324CFFF7FCFDE378002B3DD163782D4ADBB20121C2F89F
:200EE0000C35D160D2F85035DBB2022BFAD100232949C2F80415C2F80C31D2F80C110191D4
:200F00000199C2F86C31D2F86C1102910299C2F85431D2F854310393039BD2F8003201218B
:200F200043F48023C2F800321160FFF76BFB6FF002031C1AFFF766FBE042FBD4144AD2F814
:200F40005035DBB20B2BFAD0FFF7BEFD002004B010BDFFF73DFF0028BDD10220F7E7012222
:200F60000C4CC3F8FC2FFFF783FEFFF7ADFDE378002BB0D0EDE7094A09490446094802F010
:200F80000BFE2146084802F007FE012004B010BD00100040D001002064030020F4610000DB
:200FA0000462000008620000346200007D2910B50C460CD801460D48A31C224600F8013B33
:200FC00004F05AFF2046BDE81040FFF775BF084A0849094802F0E0FD214608487D2202F034
:200FE000DBFD2046BDE81040FFF766BF64030020F46100000462000008620000186200007D
:2010000010B507280FD8DFE800F010190E0E48353C04374B3748C9B25971D0F8FC2F002AD9
:2010200048D1002010BD012010BD012950D000293ED1304BC3F8FC1F084610BDA1F10B032E
:201040000F2B35D82A4A2B4BC8B29070D3F8FC2F002AE6D00A39002201EB8101C3F8FC2F56
:20106000C3F80815D3F8FC2F002A3BD0FFF72CFD002010BD31F001001AD11D4BC9B2D97028
:2010800010BD1B4A1B4BC9B25170D3F8FC2F002AC7D0C3F80C15002010BD31F0070407D1F8
:2010A000134BC1F380011970FFF772FC204610BD022010BD1C7993F807C09A7959791306A9
:2010C00043EA0C23234343EA0143C0F86C36A8E7084BD3F8FC2F002AC8D1C3F8FC1FFFF71C
:2010E000C7FDC3E70122C3F8FC2FFFF7C1FDBDE7D001002000100040184B1B7803B170477F
:2011000000B503F0FF02164BD3F8301183B029B9D3F8342192B903B05DF804FBC3F8302126
:20112000D3F8302100920F4B00990F48012283F8802003B05DF804EB01F00EBBC3F83411C8
:20114000D3F83431019381220648019B04F07CFE03B05DF804EBFFF7B7BC00BFD0010020C0
:2011600000100040CC020020C001002000B585B00346002101AA44F20100CDE901110393BC
:2011800000F004F805B05DF804FB00BF72B6094BD3F8F030DB0700D500BEBFF34F8F0549E1
:2011A000054BCA6802F4E0621343CB60BFF34F8F00BFFDE700ED00E00400FA0572B6024A7D
:2011C0001368013313607047E4030020034A1368013B136003B962B6704700BFE403002067
:2011E000044A137923B90121106091801846704785207047E8030020084B1A68D20707D590
:20120000074A4FF080410123C1F8183513707047C02283F8002301221A60F1E700E100E063
:201220008C1000204FF080430022C3F8042182B0D3F804210192019802210122C3F8041388
:201240009A6002B0704700BF10B54FF0804382B0D3F8002162B10021164AC3F80011D3F85C
:201260000011507900910121009CC3F80813A8B14FF08043D3F80421CAB10022C3F80421A7
:20128000D3F80421019202210A4A0198C3F808131368012002B0BDE8104018471368517106
:2012A00098474FF08043D3F80421002AE5D102B010BD00BFE803002030B41F4C437944F8ED
:2012C00023201E4C03EB4303E35C93BB90F904308A78002B26DB03F16043520103F561432F
:2012E000D2B283F8002390F90430002B09DB144D4FEA531C012203F01F0302FA03F345F890
:201300002C3003680A88C3F8082543790879C97803EB4303E21850700120E05491700020AA
:2013200030BC7047074D03F00F035201D2B2EA54D9E7082030BC7047F4030020F0030020E7
:2013400000E100E014ED00E00368044A01211960437903EB43030221D1547047F003002095
:2013600010B403680024C3F8004183B0D3F80041036801940122019CC3F8442311B10368D0
:20138000C3F8042303B05DF8044B70472DE9F041274E284FDFF8A08084B000244FF48035E3
:2013A000D6F804332B4211D057F824300022E0B263B1C6F84853C6F8085347F8242057F82B
:2013C00024300393D8F80030039A98470134032C4FEA4505E4D1164BD3F80423D10702D509
:2013E000D3F80021C2B9124BD3F80423920710D5D3F804216AB10022C3F80421D3F80421BC
:201400000D4B0192019A1B68052004B0BDE8F041184704B0BDE8F0810022C3F80021064A9D
:20142000D3F80031029304201368029A9847DAE700B0004040B10040F403002030B51F4CB8
:2014400094F86A3083B0ABBB04F12F03204604F15F01FF2203F8012F8B42FBD14FF0FF3296
:2014600022600123072B88BFE11803F1010340F8042F88BF81F858200C2BF3D10622002175
:201480000F4804F0E1FC0F4BC02283F8062340221A600D4B0020C3F87C01D3F87C210192BD
:2014A000019D4FF00042012184F86A10C3F8042303B030BD082003B030BD00BFF8030020D1
:2014C0005C04002000E100E000600040034B93F86A00003818BF0120704700BFF803002027
:2014E000F0B5444D2B1893F93030002B01DB0820F0BD8E78C6F34006002E0CBF082300235F
:2015000005EB830CACF1040C0CBF4FF00C0E4FF0080E02E001339E453ED95CF8044F01343A
:20152000F8D145F823202A185CB282F8304016B9EA1882F858008A7856071ED4D70749D538
:201540001F2887BF2C4A00F01F0606464FF0A04202EB8602D2F8006726F00206C2F8006721
:20156000264FC60800F0070E17F806C0012202FA0EF242EA0C02BA558A7812F002020DD100
:20158000083C45FA84F5097895F8603043EA811385F860301046F0BD0420F0BD9B0003F180
:2015A000804303F5C0430978D3F8104524F44F3424F44074C3F8104502020904D3F8100564
:2015C00001F4403102F47C520A430243C3F810250020F0BD1F284E7887BF074F00F01F02D8
:2015E00002464FF0A04702F5E072B60047F82260B6E700BFF8030020000300505C04002073
:2016000030B4344C04EB000C82B09CF93030072B24DD083B44FA83F393F860309B09032B2D
:2016200047D0012B0CBF4FF400324FF440321F288ABF294B4FF0A04300F01F0003EB8000CF
:20164000D0F8003723F44033C0F80037D0F800371A43C0F8002702B030BC7047DAB2072AC5
:20166000F9D8980000F1804003F1400200F5C04052B29200D0F8105592B202F1804202F572
:20168000C04245F00105C0F810550020106012680192019A0029DED09CF9302054F822206E
:2016A000002AD8D00D49012202FA03F3C1F80433D1E71F288ABF084A4FF0A04200F01F0330
:2016C000D2F8102598BF0346DA4002F0010202321204ACE7F8030020000300500060004071
:2016E000194B034493F93030072B18DCDAB2072A14D810B49A0002F1804202F5C042134C19
:20170000D2F81005012120F0010001FA03F3C2F81005C4F808335DF8044B704770471F28A7
:201720008ABF0B4B4FF0A04300F01F0003EB8000D0F8003723F44033C0F80037D0F80037F4
:20174000C0F80037704700BFF803002000600040000300502DE9F04F0022164689B0CDE954
:201760000222724B724C73480122354604E0043383424FEA420211D019680129F7D1D4F8F4
:2017800004131142F3D01D60196800910433834246EA020600994FEA4202EDD1644BD3F80B
:2017A0007C21012A21D0F3B2D3B1634F01250024A30003F180432E4203F5C0434FEA450503
:2017C0000BD0D3F8100557F82420D3F81015C0F30520C1F3014102B190470134082CE7D152
:2017E000002E16DB09B0BDE8F08F0022C3F87C21D3F87C3101934FF0A042019BD2F81025AB
:201800004E4B0292D3F810250392F3B2002B40F089804FF0FF334A4D0DF1100ACDE90633EE
:2018200000220492CAF80420A5F16408454C0027012614F9010B431C33D0C0F3C20E0EF12C
:2018400020030DEB030C00F007031CF8081C06FA03F31942C2B200F03F0022D008EB000152
:2018600091F9301058F821909109B9F1000F4BD003294BD01F288BBFDFF8C0E04FF0A04EB3
:2018800002F01F0202460EEB82021CF818ECD2F800C71EEA030FCCF3014C1AD1BCF1030FF7
:2018A0003BD0A542C5D1002F9CD04FF0A0430299D3F81035214A9942D2F8102502D1039984
:2018C00091428FD0DDE904010293069003920791ACE7BCF1020FE4D1032904D0B9F1000FF4
:2018E000DFD0C847DDE74FF4403CD2F8003723F44033C2F80037D2F8003701374CEA0303B6
:20190000FFB2C2F80037E9E70329CAD11AF80EB04BEA030B0AF80EB0ACE70329DED14FF40A
:20192000003CE2E746F000463FE700BF006100400060004020610040F803002000030050D1
:201940005C04002058040020074B0022C3F8002182B0D3F800210192019A044AD3F80805C9
:201960001368C0B202B0184700D000406404002010B5084CD4F8003182B04BB1064B1B68B9
:2019800098470023C4F80031D4F800310193019B02B010BD000001406804002070B5114B5E
:2019A000114A1D781160DDB9104E027801211970C6F80C25416804464FF47A720023C803AE
:2019C000490C03F085F9C6F80405237A084A5B01DBB282F810334FF480331360284670BDE1
:2019E000082070BD8E100020680400200000014000E100E0044B054901220220C3F8042382
:201A00001A600870704700BF000001408E10002010B504460020FFF7D1FB0E4A1378072B59
:201A200011D80D492370581C1070D1F80805012202FA03F30343C1F8083500240020FFF77F
:201A4000C5FB204610BD04240020FFF7BFFB204610BD00BF8D10002000000140034B044A0F
:201A600000F5C07043F82020704700BF000001403546526E10B54FF0804386B0D3F80443C5
:201A8000620703D5D3F80821002A62D1A30605D54FF08043D3F81421002A4FD1600605D5A5
:201AA0004FF08043D3F81821002A3BD1210604D54FF08043D3F81C214ABBE20504D54FF0DC
:201AC0008043D3F82021B2B9A30512D54FF08043D3F824216AB10022C3F82421D3F82421DE
:201AE000214B0592059A1B68022006B0BDE81040184706B010BD0022C3F820211A4AD3F8C5
:201B00002031049301201368049A9847DCE70020C3F81C01144AD3F81C3103931368039AE5
:201B20009847CAE70022C3F81821104AD3F81831029301201368029A9847B7E70020C3F86C
:201B400014010A4AD3F8143101931368019A9847A4E70022C3F80821054AD3F8083100930C
:201B60001368009A984791E774040020700400206C04002008B5FFF77DFFBDE80840FFF72B
:201B800063BB00BF10B44FF080414FF080530020C1F80C015F4AC1F81001C1F83805D3F878
:201BA0000404C2F82005D3F80804C2F82405D3F80C04C2F82805D3F81004C2F82C05D3F82D
:201BC0001404C2F83005D3F81804C2F83405D3F81C04C2F84005D3F82004C2F84405D3F87D
:201BE0002404C2F84805D3F82804C2F84C05D3F82C04C2F85005D3F83004C2F85405D3F8CD
:201C00003404C2F86005D3F83804C2F86405D3F83C04C2F86805D3F84004C2F86C05D3F80C
:201C20003001D3F84444C2F87045082824D04FF08043D3F80024D20744BF6FF00102C3F8A3
:201C40000024354AD2F8883043F47003C2F88830BFF34F8FBFF36F8F4FF01023D3F80022A4
:201C6000002A26DBD3F80432002B22DB2B4B2C4A1A605DF8044B7047D3F83421002AD6D15E
:201C80002848294A294CC0F88C46FB20C2F81805D1F8E42ED3F85832254822F00F0203F0BD
:201CA0000F0313434FF40072C1F8E43EC0F84026BDE7204A0123C2F80435D2F80034002BC0
:201CC000FBD04FF0102312211A4AC3F80012D2F80034002BFBD04FF010231221154AC3F8B0
:201CE0000412D2F80034002BFBD000231149C2F80435D1F80034002BFBD0BFF34F8F064998
:201D00000D4BCA6802F4E0621343CB60BFF34F8F00BFFDE700C0004000ED00E0D801002087
:201D20000090D0030050004000F00040488103000090024000E001400400FA0510B580B1C8
:201D4000012800D010BD0E4C2369A070002BF9D01A6822615B68012098472369002BF7D18C
:201D6000F0E7074CA36801226270002BEAD01A68A2605B6800209847A368002BF7D110BD43
:201D80007804002010B50B4C237882B013B1852002B010BD08486360A3602361E360FFF703
:201DA0001FFA0190FFF728FA01980123237002B010BD00BF780400203D1D000038B5154D8E
:201DC000AB78044673B110B14368012098470020FFF7F4F9EB680133EB600020BDE83840F4
:201DE000FFF7F4B903F0FF00FFF7E8F964B12A6942B1944208D0134601E09C4204D01B68BF
:201E0000002BFAD122602C61EB68002BE2D1FFF709FADFE7780400200649074A074B9B1A8A
:201E200003DD043BC858D050FBDCFFF7ABFEFEF75BFA0000A866000000000020A40200208F
:201E4000FEE7FEE7FEE7FEE7FEE7FEE7FEE7FEE7FEE7FEE710B54F4CFEF7BAFAFEF764FB33
:201E600000F088FC00F0C2FB4B48002100F08CFB00F00EF9FEF740FC00F07CF900F090FC0D
:201E8000FEF7AEFA01F050FA01F0F4F800F0B2FA2368022B11DCFEF7D1FA404800F0A2F87A
:201EA000FEF752FC00F0BEFB0446E4B2FEF754FC002CF7D1FEF7C8FAF4E7394A39493A4804
:201EC00001F06AFE394801F067FE2368022BE2DD334A3449344801F05FFE354B3548196819
:201EE00001F05AFE2368022BD5DD2D4A2D492E4801F052FE304B3148196801F04DFE23684F
:201F0000022BC8DD264A2749274801F045FE2C4B2C48196801F040FE2368022BBBDD204A17
:201F20002049214801F038FE27484AF6CD3101F033FE2368022BAEDD194A1A491A4801F07D
:201F40002BFE22481A2101F027FE2368022BA2DD134A1449144801F01FFE1D4B1D481988D4
:201F600001F01AFE2368022B95DD0D4A0D490E4801F012FE184801F00FFE2368022B8ADDAD
:201F8000164800F007FA2368022B84DD144801F003FE80E7FC010020EC0100205465000041
:201FA000A0620000A862000008620000B0620000F0640000E0620000D4640000F062000079
:201FC000B0640000FC62000008630000246300008010002044630000546300006007002008
:201FE000D463000010B50446006830B1002100F0CBFA54F8040F0028F8D110BDF0B503882F
:2020000083B0054633B14A2B18D188291BD0012003B0F0BD1B4800F087FC044630B1A168D9
:20202000201D00F061F92468002CF8D1164B01221A704A2301202B8003B0F0BD002303804B
:20204000032003B0F0BD0F48019200F06DFC04460028EED0019A031D9A4205D02468231D52
:20206000002CE6D09A42F9D10648084E214600F08BFCD4E90523376832600BB1E06998475C
:202080003760D6E78C0400208F1000201806002010B5064B064800241C7000F041FC214697
:2020A0000448BDE8104000F06FBA00BF8F1000208C040020DC01002070B582610D4A0E4DE1
:2020C000044610782E68E361666130B9A1600B482146BDE8704000F029BC201D084B2B60A4
:2020E00000F002F92E6021460448BDE8704000F01DBC00BF8F100020180600208C0400202A
:20210000DC01002010B50A4B1B7804463BB9C0E9033321460748BDE8104000F035BC043038
:2021200000F00EF921460348BDE8104000F02CBC8F1000208C04002038B50C4B1D78044697
:202140006DB90B4800F0F0FB38B1A04202D10BE0844209D000680028FAD1012038BDBDE8ED
:202160003840043000F0DEB8002038BD8F1000208C040020704700BF10B5FEF705FA0B4B24
:202180001A68D2E9003192680B44191A52B1D2E9003423441B1A9268994228BF1946002A82
:2021A000F5D14318024A136010BD00BF94040020900400202DE9F843038805465BB3592B8E
:2021C0002CD187292FD0822920D12C4FDFF8B4803C684FF00009CCB1002603E0A368264648
:2021E000A3B11C46204600F08DFB0028F6D0E0682246882100F08AFA03464046002B2AD09C
:2022000000F0AAFAA3682646002BEAD159232B800120BDE8F883194A1360F7E7002303800B
:202220000320BDE8F883154F3968002019B9EDE789680120D9B1CB689342F9D000B13960D9
:202240008B68002BE2D0D868904207BF9B688B6019469B68F5E7E360A3686EB1B3603B6887
:20226000C4F808902BB1FFF787FF3C68B3E73960CCE7034A1360C9E73B60F1E7940400208D
:2022800090040020EC01002010B50446104800F063FA1049E3680A684BB142B194420FD00F
:2022A000134601E09C420BD09B68002BFAD10A4BA2601B68E3600C60BDE81040FFF75CBFA3
:2022C000054B1B68E360BDE81040FFF755BF00BFEC0100209404002018060020014800F0EE
:2022E0003BBA00BFEC01002010B5044600F0EEFA2046BDE81040FFF7C7BF00BF10B5044691
:2023000000F0ECFA2046BDE81040FFF7BDBF00BF10B5044600F0F0FA2046BDE81040FFF721
:20232000B3BF00BFC068B0FA80F04009704700BF024B1868003818BF0120704794040020FF
:2023400010B5124B19688142044614D00B462BB19A68A24206D01346002BF9D10023C4E9E2
:20236000023310BDA2689A6049B1FFF705FF0023C4E9023310BD82681A60002AF5D1044BEE
:2023800000221A600023C4E9023310BD940400209004002028B32DE9F0410025124FDFF8E4
:2023A00050800446012665B1EB070FD52178384601F0F2FB082E12D0013501360134002D14
:2023C000F2D12178384601F0E7FBF5E7404601F0E3FB2178384601F0DFFB082EECD1BDE8A5
:2023E000F081024801F0D8BB9C6300008863000098630000034A04499079D37903EB0023B9
:202400000B80704760070020801000202DE9F84FDFF8CC80D8F80040844205460E4657D027
:20242000002C43D0234601E0002B3FD01B689D42FAD1002B3AD0294FAB7BD7F8009053B374
:202440000023AB73002C45D04FF0020A4FF0010BA54211D0A37BDB070ED5A3682A465BB132
:202460003C6084F80EA004F10C00872198470238012828D984F80EB02468002CE8D1AB68EC
:202480003BB1B54205D03D600022832105F10C009847D8F80040A5420AD02CB12368AB421A
:2024A0000CD01C46002CF9D1C7F80090BDE8F88F2B68C8F80030C7F80090F7E72B682360A7
:2024C000C7F80090F2E721462046FFF79FFFD3E72346AEE7AB68002BD3D1E5E718060020CF
:2024E0001C06002038B583687BB104460A4804600220A07304F10C000D46984702380128CB
:2025000004D9832D02D00123A37338BD21462046BDE83840FFF77ABF18060020F8B5134ACC
:20252000134B146800221A70D4B1124F0125022601E02468A4B1E37B002BFAD0A368E5815B
:20254000002204F10C008221002BF2D03C60A67398470238012804D9A5732468002CEAD169
:20256000F8BD21462046FFF751FFE2E71C0600209310002018060020024B1878421C1A70C2
:20258000704700BF91100020F8B5164A1568854207D0044635B12B4600E01BB11B689C422E
:2025A000FBD1F8BD002CFCD00F4EA36825600125146000223768A573A2815BB10A460221A0
:2025C000A1733460812104F10C0098470238A84202D9A5733760F8BD21462046FFF716FF96
:2025E000F8E700BF1C0600201806002030B408480849094A094C0A4D00234FF08A0C0370CE
:202600000B6013602B7084F800C030BC704700BF921000201C0600201806002091100020A0
:20262000901000202DE9F8432D4D2B78F3B92D4E3378BBB12C4C2D49227802EB4200013244
:2026400002F01F02227001EB8002D2E90184013BDBB211F8207033705CB1812F1ED0A27B5A
:20266000D2071DD428781844BDE8F883FFF756FFDDE71F4A14685CB9F4E7A37B13F0010F5F
:2026800020464246394601D0FFF72CFF246814B32B78002BF1D0FFF741FFEEE70122A273B6
:2026A000D4F80890B9F1000FDCD0124B1C6002234246A373394604F10C00C84702380128C3
:2026C00005D9832F03D001223378A273CAE721462046FFF79BFE337828781844BDE8F883E0
:2026E000931000209210002090100020980400201C06002018060020024A034B10781B78A4
:2027000018447047921000209310002030B40F4C94F800C0BCF1200F15D00D4B1B78634443
:2027200003F01F030CF1010C03EB430384F800C0084C054604F8231004EB8303C3E90125F5
:20274000002030BC7047012030BC704792100020901000209804002018B1837B013B012B85
:2027600000D97047024A0123C3731370704700BF93100020FDF70EBF10B5084C206858B1FC
:20278000D0E90131002222609847236823B1BDE810401868FDF730BF10BD00BF2006002042
:2027A000074B82B001AA9A42019304D9CD2103F8011B9342FBD10348002102B0FFF7E4BE41
:2027C000A81000200002002038B5124C124DFDF7C3FF2378CD2B08D0AC4202D30EE0AC4295
:2027E00012D014F8013FCD2BF9D1AC4202D30BE0AC4209D014F8013FCD2BF9D0FDF7ACFFC8
:20280000AC4203D2281B38BDFDF7A6FF4FF0FF3038BD00BFA81000200000042070B5038856
:2028200004463BB1912B0ED11F48FFF77BFD70B9012070BD1C484FF4A061FFF755FD9123D7
:202840002380012070BD00230380032070BDFFF7BBFF164E164B051EA6EB030615DB002E41
:2028600013DBB5420DDD134B1B68002B09DD124A1249134801F090F912483246294601F0D9
:202880008BF90948FFF73AFDD9E70A4B1B68002BF7DD094A09490A4801F07EF93246294659
:2028A000094801F079F9ECE72406002000000420A8100020FC010020A463000004620000C1
:2028C00008620000D8630000AC63000010B541600446FDF759FE206010BD00BF10B504462E
:2028E000FDF752FED4E90021C2F101031844884284BF5218226010BD10B50446FDF744FE98
:20290000206010BD10B50446FDF73EFED4E90032C3F10103184482422CBF0020012010BD6B
:2029200000230360704700BF006870470368DBB110B4002400E0134699420FD01A681C46C6
:20294000002AF8D100230B600368CBB11A461B68002BFBD111605DF8044B70470A686CB1DA
:20296000226000221A60EDE700230B6003684BB11A461B68002BFBD1116070470260F0E735
:202980000160E8E70160704703689BB110B4002400E0134699421A6805D01C46002AF8D190
:2029A0005DF8044B704734B1226000221A605DF8044B704770470260F7E700BF03682BB161
:2029C00000201B680130002BFBD170471846704700B10068704700BF10B504464288406850
:2029E000002103F031FA23886288A06803FB02F2BDE81040002103F027BA00BF30B44588AF
:202A0000ADB14368002202E00132AA420CD0194601330C78002CF7D101230B70058880688F
:202A200002FB050030BC7047002030BC70472846F8E700BF10B4448882685CB18A420ED0F1
:202A4000B0F800C0002301E0914209D00133A3426244F9D14FF0FF305DF8044B70470023E9
:202A60004268D15C0029F5D00020D0545DF8044B704700BF83688B4208D84288008800FB4E
:202A8000023081422CBF0020012070470020704708B502F0CDFA80B208BD00BF0E4A0121E1
:202AA00000231160C2F80031D2F80031002BFBD0D2F8080508490023C0B2C2F80031D1F835
:202AC0000031002BFBD0D1F80825012340EA02204B6080B202F07EBA00D000400023013AF4
:202AE0000160027143718371704700BF8279437990F804C09B1A13EA0C0F07D00368511C65
:202B00009B5C01EA0C028271184670474FF0FF30704700BF2DE9F0410488772C064607D040
:202B20007E2C37D0A4B1002303800320BDE8F081DFF8D0802E4D98F800202E4F00233B6023
:202B40002B6012B32C4CE256002A41DB2B6832E0FFF712FD294B2A4F1870254D3A682C6070
:202B6000002A43D02346244C984604F8038000219368802098472B6801332B6057F8232063
:202B8000002AF2D1DBB21F4A1370772333800120BDE8F081194B1B788B4216D1144D164CDD
:202BA000DFF86080134F3A682B6801323A60E25C02F07F02E25498F80020013393422B60CF
:202BC000C1DB3B68002BB9D1DFE70120BDE8F0810B4A52F82320094B00201978FFF796FD94
:202BE0000028E0D17E23338001209FE71346CAE73806002034060020C00200209510002098
:202C0000B80100209410002010B590F84C30094A0446013384F84C30802123462030FFF735
:202C20004BFA054B22461978BDE810400020FFF76DBD00BF092C0000961000202DE9F041D0
:202C4000038804463BB1B3F5867F0AD182290DD00120BDE8F0814FF4867323800120BDE8C7
:202C6000F081002303800320BDE8F081FDF780FDBFF35F8F1649174B0E6800220A601F7899
:202C80001A70FFB2BFF35F8F134DFDF775FD28680028E0D0DFF8448003E055F8040F002825
:202CA000D9D090F8463026FA03F3DA07F5D590F8453047FA03F3DB07EFD5FFF73DFA00287D
:202CC000EBD02B68424618460221FFF7F5F9E4E74C06002099100020A4010020152D0000AC
:202CE00010B4094A094C1368194311602178012202FA00F040EA0103DBB2237004485DF889
:202D0000044BFFF729BD00BF4C060020991000202002002070B50446FFF70EFA00B970BDF9
:202D200004F120063046FFF707FA94F84610054694F84500FDF77AFD48B994F8443063B985
:202D4000002DECD13046FFF7DDF90D4B11E00128F6D194F84430002BF2D1002DDFD000251F
:202D60002346084A84F84C507E213046FFF7A4F9054B197822462846BDE87040FFF7C6BC54
:202D800098100020092C000097100020F8B5FFF7F3FB304B304C1870FFF7EEFB2F4B304F87
:202DA0001870FFF7E9FB2F4A2F4B107022687B600025FF213972FD60002A42D02B4E09E0EE
:202DC00091F84600F9683A72834054F8042F0B43FB60B2B392F8463092F84510926C03F0F7
:202DE0001F0343EA41131F2BC6BF03F01F0331464FF0A04103F5E07342F08C0241F82350FE
:202E0000236893F8461093F84500FDF7CBFC226892F8463092F8450003F01F0343EA4010D0
:202E20000121FEF7EDFB2168387A91F8452082424FF00103C4D0FF28C2D054F8042F002A6D
:202E4000C8D10B480021FFF79FFBBDE8F840044800F010B897100020A401002098100020A0
:202E60003C06002096100020E12C0000000300502002002001460148FFF758BD5006002077
:202E800070B505460C480E46FFF74EFD90B1044601E0246874B1237AAB42FAD1E36816EA1C
:202EA0000301F6D063682846002BF2D098472468002CF0D170BD00BF5006002008B5034860
:202EC000FFF72EFDBDE80840FDF762BC5006002010B51B4A1B4C00234FF0010C40FA03F12E
:202EE000C90713D59178B9B1117892F801E001F01F0141EA4E111F29C6BF01F01F01A6464E
:202F00004FF0A04E0CFA01F1CEF808150133042B02F10302E2D110BD117892F801E001F0E9
:202F20001F0141EA4E111F29C6BF01F01F01A6464FF0A04E0CFA01F1CEF80C15E6E700BF85
:202F400080610000000300500F4A10B40F4C02F10C0C03201378517803F01F0343EA4113AD
:202F60001F2BC6BF03F01F0321464FF0A04103F5E0730332944541F82300EBD15DF8044BD1
:202F80000F20FFF7A5BF00BF806100000003005070B50488672C06461BD0792C33D05CB383
:202FA00000230380032070BD1E4C1F4A23680025D554591C1D4B216028461978FFF7A6FB7B
:202FC0001B4B2A4618688521FFF7A0FB30B300232360184C134D06E00A28E5D00D28E3D062
:202FE0002B687E2B15DD2046FFF780FD431CF3D167233380012070BDFFF7BEFA0B4A094BC5
:2030000010701C60E5E7852901D0012070BD054CDDE705495A1CC8542A60E4E77923338082
:20302000012070BDD4060020540600209A10002018060020D806002008B5054905488022CE
:20304000FFF74CFDBDE8084003480021FFF79CBAE0060020D806002030020020082202F01A
:203060000BBF00BF08B5082202F0F6FEB0FA80F0400908BD054B10B51B689847044B5B6849
:203080009847044BBDE810405B68184768620000B0640000D464000038B50C4B0C4A0D4DE1
:2030A0000D4C0E48002119800D4B11801A22197002F0CAFE20462946FFF7D0FF294604F141
:2030C0000800BDE83840FFF7C9BF00BF82100020841000202C64000068070020F8070020EA
:2030E0009B100020144A00232DE9F0411380134A134EDFF85C80134F13700C46802C1946F7
:203100004FF01A0205461048338028BF802402F09BFE38464146FFF7A1FF414607F10800C6
:20312000FFF79CFF22462946084802F0A5FE34802046BDE8F08100BF841000209B100020D4
:203140008210002068070020F8070020780700202C640000F8B50E4E0E4D32782B881344C8
:20316000802B01DD0020F8BD0B4F3946044602F083FE0A4A337811882A881944E01857FA6B
:2031800081F102F079FE30782B881844F8BD00BF9B10002082100020780700208410002059
:2031A00010B5134B134C144A94F800C01B881288634452FA83F39BB21A18802A16DC013BE6
:2031C0001BB2002B0EDB0D4A591C03EB000E11447244013B1BB211F801ED02F801E9B3F1B3
:2031E000FF3FF6D160442070012010BD002010BD841000209B1000208210002078070020EB
:20320000074A1388834209DB0649B1F800C080B21B1A60440880138001207047002070478C
:203220008210002084100020014B1880704700BF82100020044A054B12881B7804481344AE
:2032400050FA83F0704700BF841000209B100020780700200048704778070020014B188893
:20326000704700BF821000200549064A064B128808781B88104453FA80F080B2704700BFC1
:203280009B100020841000208210002010B51A220C46054902F0F0FD20460449BDE81040D5
:2032A000102202F0E9BD00BFF80700206807002010B51A220C460146044802F0DDFD2146BE
:2032C0000348BDE81040102202F0D6BDF807002068070020024B23F810100120704700BF2A
:2032E000F8070020014B33F810007047F807002008B5044B0D3803EBC000FFF7AFFE01208F
:2033000008BD00BF68070020024B0D3803EBC000704700BF6807002001490248FFF7A2BE6B
:203320002C6400007007002008B50448FFF754FBBDE808400248FFF74FBB00BF4C020020B4
:203340004002002038B50E48FFF758FB044678B10C48FFF753FB0546206058B1FFF7FAFEB2
:2033600005F19C01A5F8800005F18200FFF78EFF204638BD21460248FFF75CFB2C46F7E7F9
:20338000400200204C020020006800F19C018230FFF77CBF10B5044621460748FFF76AFB64
:2033A00000B910BD21680548FFF744FB21460248BDE81040FFF73EBB400200204C02002017
:2033C00010B5044621460948FFF754FB00B910BD2468B4F880102046FFF784FE04F19C0123
:2033E00004F18200BDE81040FFF762BF40020020F8B5FDF7C9F8104E0746344600250D200F
:20340000FFF782FF2146FFF72DFE103420B90135102DF4D10020F8BD072006EB0515FFF75B
:2034200061FF2B7B8342F5D1A868381AB0F5206F8CBF00200120F8BDA40D002070B5174EC9
:20344000002435460D20FFF75FFF2946FFF70AFE1035F8B90134102CF4D10F2406EB041576
:203460002846103D013C1022294602F005FD002CF6D10720FFF736FF3073FDF785F803461D
:203480000D20B360FFF740FFBDE8704001460348FFF7E4BD002CE1D1EBE700BFA40D0020F9
:2034A0008C4611461A46034608B1604618477047014B1888704700BF9802002000283ED073
:2034C000037A022B30B410D00378022B15D00379B3B10024C37913F0030318BF012301B1FB
:2034E0000C6002B1136030BC7047C579447A037965B90CB9012BF2D0DBB100231C46EEE768
:20350000447A14F0030418BF0124E3E7C4B1032D37D1032C2ED0022C24D143BB022D2DD0F5
:203520000123032D24D1A4F10204B4FA84F46409D5E7023C012C8CBF00240124CFE77047EC
:203540004BB9022D08BF0123EAD1A4F10304B4FA84F46409C3E7032D01D0022D02D123464D
:203560001C46BCE7002BC8D1022DDAD1EDE701230024B4E7002BC0D10123D4E701231C46D0
:20358000ADE7022DC7D1002BF1D1022C4FF00103DBD11C46A3E700BF30B504460D4683B066
:2035A00000210622284602F04FFC637DD9075CBF01232B70237E012B23D901AA694604F165
:2035C0001000FFF77BFF009B0BB10223EB70019B0BB102236B70E37D03F00303022B03D0E3
:2035E000032B14BF00230823AB70637E03F00303022B03D0032B14BF002308232B7103B0E9
:2036000030BDE37D9A0706D0637E9B0703D0E28BA38B9A4202D000232375CEE7012323751B
:20362000CBE700BF02280CBF012307230B441A78FF2A184603F1FF3303D18142F7D10120C8
:2036400070470020704700BF00B583B06946FFF7A3FF9DF800309DF801209DF802009DF847
:2036600003100233134403449DF804209DF805000B441344184403B05DF804FB4378827853
:2036800090F800C0DB00120102F0100203F0080313430CF0070290F803C0134302794FEA42
:2036A0004C1C0CF0200C920143EA0C0302F0400213430B704379827990F809C003F00103A7
:2036C000520043EA8C1302F0020290F807C01343027A4FEA8C0000F00C001201034302F0A9
:2036E000300213434B70704730B583B005460C466946FFF751FF214605F11000FFF7BEFF06
:203700009DF80030012B04BFAB7EA3709DF801300CBF03220222022B08D1AB8BA354531C3D
:20372000A98BDBB2090A0232E154D2B29DF802306BB303F1FF3E1344AE44DBB294460132CF
:20374000D2B21EF8011904F80C109A42F6D19DF80320022A08D1EA8BE2545A1CE98BD2B224
:20376000090A0233A154DBB29DF8040088B100F1070C1844AC44C0B21A460133DBB21CF8B6
:2037800001E904F802E09842F6D103B030BD1346DDE7184603B030BD00B50278437885B0E6
:2037A000C2F3C00C02F0070E8DF805C00846C2F3001CC2F34011C2F380128DF806C08DF8FB
:2037C000071003F0010CC3F340018DF80820C3F381028DF809C08DF80A10C3F3011C8DF8B0
:2037E0000B209B090A2201A98DF804E08DF80CC08DF80D3002F040FB05B05DF804FB00BFB3
:20380000012943DD2DE9F04186B014460F4603A90546FFF7C1FF0A2203A904F1100002F0B6
:203820002BFB9DF811306BB3AE1C03A802AA01A9FFF744FE9DF81380B8F1000F43D0029BDB
:20384000002B31D1B8F1020FA38367D0B8F1030F4DD09DF81580B8F1000F2CD0019BBBB95E
:20386000A38BE383B8F1020F4DD0B8F1030F31D0701B3B1A8742C4E90E6300DA002006B0AA
:20388000BDE8F081AB78A376EE1CCEE700207047727816F8023B03EB0223029A9BB2E383A9
:2038A000002ADFD1A383DDE7727816F8023B03EB02239BB2C6E71E4904F10800FFF7CEFBDF
:2038C000A4F81E80D4E71A492046FFF7C7FBA4F81C80BEE706F10800034604F1080213F843
:2038E000011D02F8011BB342F9D10646C0E706F108000346621E13F8011D02F8011FB342E2
:20390000F9D10646A5E70A4904F10800FFF7A6FB7378237216F8023B6372A9E7044920463B
:20392000FFF79CFB7378237016F8023B637090E72C64000030B591B0FFF77CFC0446FFF783
:203940008DFC6A4601462046FFF75AFF00283ED00446FFF755FCD0B39DF810100C20FFF711
:20396000B9FC9DF813100820FFF7B4FC9DF817308BB1BDF81C50FFF79BFD854205D0BDF8F4
:203980001C204FF6FF739A4221D19DF817006946FFF748FEB0B102A90D20FFF7A9FC9DF866
:2039A00015303BB14FF6FF710720FFF793FC204611B030BD9DF81A100720FFF78BFC204698
:2039C00011B030BD69460E20FFF792FCE3E74FF0FF34ECE7F8B505460C2014460E46A84708
:2039E00000232074A37496B3E37463750920A847002701232376A07567740720A847A07669
:203A0000FFF756FDE0830A20A84701280CBF3B4603236376FFF74CFDA0830B20A8470128C8
:203A20001AD066B90323E375637E022B0CD0E37DA3F10203B3FA83F35B092375F8BD022323
:203A4000E375637E022BF2D101232375F8BD0820A8476675E074C9E7E775E5E730B591B088
:203A60000446FFF725FD4FF6FF7398425DD040220021684602F0E8F92D4B1A7832B36CBB0C
:203A8000FFF74AFC01466A462A48C9B2FFF7A2FFFFF742FC00283DD04FF6FF73ADF800307A
:203AA0000D20FFF731FC014602A8FFF7D7FAFFF7C1FB0E90FFF7D2FB034668460F93FFF75C
:203AC000C3FD0546D4B9284611B030BD01221A70FEF7DEFF184B1870002CD1D00720FFF7DE
:203AE00001FC0028CCD1144D2978D9B189B20720FFF7F0FB2B7801332B70C1E7FFF750FBDA
:203B000098B1FFF7A7FB01466846FFF7EDFD284611B030BD0E20FFF7F7FB01466846FFF7D2
:203B20009DFABDE701212970E1E74FF0FF35CAE79C100020E53200009D1000200120FFF7DC
:203B40008DBF00BF0020FFF789BF00BF10B40A490A4C0A681044A04204D808605DF8044B40
:203B600010467047064B0C221A604FF0FF3210465DF8044B704700BF5802002000000420C1
:203B8000741000200AB90020704708B508461146FCF7A4FC002008BD0FB400B583B004AAB4
:203BA000054852F8041B019200F026F803B05DF804EB04B0704700BF5C020020102970B5B1
:203BC0000C4605460CD90B4E01E0102C0BD9D5E9003010223146103C98470028F5D070BD2D
:203BE00008460029FBD02B68686802492246BDE870401847886400002DE9F04F8FB00B78B6
:203C00000192002B00F04B84894680464FF0000B04E019F8013F002B00F0F480252BF8D16B
:203C2000494500F08F81A9EB0104D8F80030D8F8040022469847002840F0688299F800303F
:203C4000A344002B00F0E18099F8013009F10109002B00F0DA800025A3F12002102A0AD8CF
:203C6000DFE802F0CD0909CA09090909090909C709C40909BF00A3F13102082A40F254813E
:203C80002A2B00F0628100242E2B00F03F814FF0FF316C2B00F03081682B00F064817A2B1B
:203CA00005D199F8013045F0600509F10109782B7CD8DFE813F0AA007B007B007B007B0077
:203CC0007B007B007B007B007B007B007B007B007B007B007B007B007B007B007B007B0034
:203CE0007B007B007B007B007B007B007B007B007B007B007B007B007B007B007B007B0014
:203D0000A0027B007B007B007B007B007B007B007B007B007B007B007B007B007B007B00CC
:203D20007B007B007B007B007B007B007B007B007B007B007B007B009D027B007B007B00AF
:203D40009A029702AC027B007B007B007B007B007B007B007B007B007B007B007B007B0041
:203D60007B007B007B00A9027B007B007B007B007B007B007B007B00A6027B00A3028B02FA
:203D80008E02940291027B008B027B007B007B007B00BB02B80279007B007B00B5027B005E
:203DA000B2027B007B00AF0245F4407505F4E063B3F5806F09F1010900F08A814ED9B3F519
:203DC000C06F00F0DA80B3F5E06F22D1019A136804320192C3F800B099F80030ABB149468A
:203DE0001CE745F0100519F8013F35E745F00105F9E745F00605F6E745F00805F3E745F080
:203E00000205F0E789457FF40EAF58460FB0BDE8F08FB3F5A06FDFD1019A012C13688DF816
:203E2000203002F1040238BF01240192EA0704F1FF3440F13582D8E90030012208A99847E5
:203E4000002840F063810BF1010B21464046FFF7B5FE002840F05A81A344BDE7B3F5807F23
:203E600000F09680B3F5407FB6D1019ABB4E136804320192BA4A15F4804F08BF1646002245
:203E8000002B00F09B810DF13307394603F00F001B09305C01F8010D43EA0273120953EA81
:203EA0000200F3D17E1A00F08B810336782301F8013C302301F8023CA6424FF0230301F8CE
:203EC000033CA1F10307C0F01481E9074FF0000400F1148121464046FFF770FE002840F060
:203EE0001581D8E90030394632469847002840F00D81B344A3446FE799F801306C2B00F002
:203F00000A8109F1010945F06005D0E699F80130A3F13002092A09F1010040F203812A2B01
:203F200000F011818146B2E6002404EB840403EB440419F8013FA3F13002092AA4F13004BC
:203F4000F3D9A1E699F800307BE6019A146813460433002C0193B8BF45F0010599F8013011
:203F600009F1010990E699F80130682B00F0028109F1010945F0400599E6D8E9003079494F
:203F800001229847002840F0C1800BF1010B23E70029ABBF25F0100501230391039315F460
:203FA0000053059305F0E00300F0EB80402B00F04B8200F24881002B00F01A82202B40F0CE
:203FC0007082019A92F90030043201921F464FEAE37ABAF1000FC0F27A8105F4C053B3F5BA
:203FE000805F00F0C081B3F5C05F00F0DD81B3F5006F00F08F81002304930DF136060293FC
:20400000DDE90232934234BFD31A002341F60802039305EA020141F20803994200F0368145
:20402000DDE902309142034403D157EA0A0240F0668100273A46059969B10499002940F0E1
:20404000438105F00601022900F061810629464904BF01270A463B449C428CBFE41A0024E0
:2040600015F0010A06D1E80640F1CE81039B23440393544637B11146D8E900303A46984727
:20408000002843D1039D029B102D9B4440F2AA81D8E9003035491022103D9847002835D133
:2040A000102DF5D8D8E9003030492A46984768BBD8E90030029A3146BB44984730BB039BAF
:2040C0005B449B46BAF1000F7FF4BFAEA34483E6019A1346176804330193002F63D1244F62
:2040E0000626002902DB8E4228BF0E46B4427FF6ECAEE907A4EB06047FF5ECAED8E90030F6
:20410000394632469847002800F093804FF0FF300FB0BDE8F08F99F8023045F0800509F1D6
:204120000209C4E5002202EB820203EB420210F8013F2F2BA2F1300240F2A580392BF2D919
:2041400011468146A5E5019A134604330193116899F8023009F102099BE500BF54640000C0
:20416000406400008464000074640000986400007C64000099F8023045F0200509F10209DD
:2041800095E5402B00F058816DD8002B00F04681202B40F09B81019ADDF814A017781346A7
:2041A0000433019319E73B78002B00F061813B4613F8012F002AFBD1DE1B92E70DF133012E
:2041C000302301F8013C042601396FE645F42455ECE545F40245E9E545F48135E6E545F4D9
:2041E0000075E3E545F48445E0E545F44245DDE545F4E135DAE545F4C065D7E545F4A065D3
:20420000D4E545F4C135D1E545F4B245CEE545F4A135CBE545F4C855C8E545F41065C5E503
:2042200045F48065C2E545F48855BFE509F10109CCE521464046B344FFF7C0FC00287FF419
:2042400065AFA344C8E5602B00F0D280802B40F02881019B073323F00703D3F804A053F8B8
:20426000087B0193B5E6602B00F0D880802B40F02D81019B073323F00703D3F804A053F883
:20428000087B0193A9E61146814610E5039B029A012B38BF012300270393D3183A46CAE60C
:2042A00021464046FFF78AFC00287FF42FAFD8E90030012208A90BF1010B984700287FF4D5
:2042C00025AFA344A34487E5904A0127C3E67F4205F4C0536AEB4A0AB3F5805F00F0CA80EE
:2042E000B3F5C05F00F0B980B3F5006F4FF00103049316D000230DF13606029380E68449D2
:20430000844A15F4804F18BF0A46022793E6824A0127A0E657EA0A034FF0000300F0BA80FA
:204320000493CDE9064B0DF136030293384651461E460A22002383460C4600F0C9FC303219
:2043400006F8012D0023584621460A2200F0C0FCBBF10A0F74F10003EBD2029B9B1BDDE92E
:20436000064B02934CE657EA0A0300F0888000233846514604930DF1360302931E4607F0E9
:204380000703FF08303347EA4A774FEADA0A06F8013D57EA0A03F2D1029B9B1B0293074618
:2043A0008A462DE60027BA4615F480433ED104935A483B46524657EA0A0166D00DF136010F
:2043C00002910E4603F00F011B09415C06F8011D43EA0273120953EA0201F3D1029B9B1B02
:2043E00002930DE6039B002B3FF462AE1D4659E6019A176813464FEAE77A0433BAF1000F89
:204400000193BFF6EAAD62E7214640460492FFF7D5FB049A00283FF42DAE77E6019ADDF889
:2044200014A01768134604330193D6E500213C4804913B465246BEE7019ADDF814A01788AF
:20444000134604330193C8E5019AB2F90030043201921F464FEAE37ABBE56B0405D5012146
:204460002F4804913B465246A8E7012304939FE73B46A1E601233846514604937BE70023EA
:20448000049302930DF13606BAE5002302930DF13606B5E5029304930DF13606B0E5184632
:2044A000B4E405F4C053B3F5805F27D0B3F5C05F3FF478AFB3F5006F4FF000030FD00493EA
:2044C0001F469A460DF13606029399E505F4C053B3F5805F02D0B3F5C05F07D0059B029312
:2044E00004931F469A460DF1360689E5059B02931F469A4604930DF1360681E500230493CD
:204500001F469A4602930DF1360679E570640000686400006C640000786400004064000039
:20452000546400002DE9F0470D468B6892F82C900646506B1446D3E90078FEF725FA686871
:20454000FEF728FFA9681D48FEF774FA1C482946FEF770FA606BFEF7E7F9D8B10023A385C0
:20456000FEF796FA174BA3FB0023C11A03EB51039B08C3EBC303C11A134A234604F10C00BD
:20458000FDF79AFD4B46324641463846BDE8F047FEF786BF04F10C00FDF7B4FD21460B480C
:2045A000FEF7F2F921460A48FEF744FA4B46324641463846BDE8F047FEF772BF6402002099
:2045C0007C02002025499224D54500000C0F00207002002020B32DE9F047044684B0406BE9
:2045E000FEF7A2F90546C0B14068FEF7E9FE76490D20FEF77DFE01210820FEF76BFE00F0F7
:20460000BDF900280DDAAB683BB105202246294604B0BDE8F047FFF785BF04B0BDE8F08740
:204620007047FEF717FE694F90F802807B680193FEF710FE0646FEF717FE019B01463046CE
:204640009847FEF769FEBB6901930646984700282DD1002E61D1D7F81C90C84738BBBB6816
:204660001E46FEF701FEB04700286BD002281ED0AB68002BD1D00420C8E7FBF7C3FF6FF0AB
:2046800028031E1A03E0FBF7BDFFC64202D5C8470028F8D0C84700286ED03B69032103A860
:2046A0009847032803D19DF80E3043453BD0AA68002AB2D094F82D104B1CDBB2052B84F88F
:2046C0002D301AD8127A94F82C00904221D2012B88BF1F2671D9FEF7DBF9B0FBF6F101FB29
:2046E000160104F10C003A4A2346FDF7E5FC686804B0BDE8F047FEF747BE94F82C3001336A
:20470000DBB2002184F82D1084F82C30127A9A4216D82246294601207AE7BE68FEF7A4FDEF
:20472000B0470028A2D1AB68002B3FF476AF94F82C300020013384F82D0084F82C3065E748
:204740000726C8E7FBF75EFF6FF0180AAAEB000A04E0FBF757FF1AEB000F02D5C8470028C0
:20476000F7D0019B9847002887D1C847002884D17B699847002880D0A96800293FF44DAF47
:2047800094F82C3001330022DBB284F82D2084F82C300A7A9A4203D822462946022037E75B
:2047A000FEF776F90B4BA3FB0023C21A03EB52039B08C3EBC303C11A93E70B1D0126DBB217
:2047C00006FA03F35E1E86E76007002068620000D5450000254992242DE9F04106460E20AA
:2047E0000F46FEF791FD554B1A780546002A6FD0534C2178002940D04A1CD2B289B207203E
:204800002270FEF767FD01210C20FEF763FD4D48FEF78AF8044620B918E0FEF7D9F80446D3
:20482000A0B12946201DFEF71DFC03462046002BF3D0606BFEF7C2F8072821DD3946304634
:204840000123BDE8F0410622FEF72ABE3E48FEF7D5F804460028F1D02946201DFEF7FEFB44
:20486000002304F13000C4E90C30A385FEF758F834482146FEF75AF8DBE701210222BEE7C3
:204880003248FEF7BBF8054688B33148FEF7B6F8A86040B3FEF756FD686000B30620D5F8A3
:2048A0000880FEF71FFDC8E9006710F0FF000ABF082388F8080088F80830606B2946FEF7E5
:2048C00035F8606BFEF730F885421ED0BDE8F08101221A70FEF7DCF8194CC1B28AE7A96828
:2048E0001B48FEF7A7F819482946FEF7A3F8606BFEF764F80028A1D121461248FEF744F8B9
:2049000021461148FEF796F898E794F82D30012B0ED91F25FEF7BCF82346B0FBF5F10D4A9B
:2049200001FB150104F10C00BDE8F041FDF7C4BB0333DBB201259D40013DEBE79E10002077
:204940009F1000200C0F0020700200207C02002064020020D545000008B50548FEF73CF84A
:204960000448FEF739F8BDE808400348FEF734B87C020020640200207002002010B501210F
:204980000C20FEF7A7FC024BBDE810405B68184734640000014B9B68184700BF3464000052
:2049A000014B1B6A184700BF68620000014B5B6A184700BF6862000010B50D4B82B01B6873
:2049C00098470C4B04469B6A01A91820984701280BD0002C019BB8BF1524802BD4BFC4EB28
:2049E0000300C4F1800002B010BD002002B010BD3464000068620000FFF7EEBE30B50C4C20
:204A000083B0A56A69461820A84738B901A90420A84728B1FFF7A0FF236A984703B030BD56
:204A20000199E36A21F00201019104209847F1E76862000030B583B0FEF710FC032801D12E
:204A400003B030BDFFF7A6FF0028F9DB0E20FEF75BFC2249FEF706FB08B30D20FEF754FC17
:204A60001E49FEF7FFFA04460028E9D1FEF7C0FC0546C8B10820FEF735FC0028E0D00223F5
:204A80008DF804308DF80540FEF7E4FB144B8278DB688DF80620032101A89847D0E7FEF720
:204AA0003BFC0028CCD0D8E7FEF7C8FC0820FEF719FC18B90B4B9B689847C1E702238DF8F6
:204AC00004308DF80550FEF7C5FB054B8278DB688DF80620032101A89847EBE760070020D6
:204AE00068620000D4640000014B00221A607047EC0F002010B50446FEF7CEFA0D4A0E4B7E
:204B000011881868FEF7EEFA74B121460E20FEF7EFFB0A490D20FEF7EBFB094B00210846E8
:204B20009B689847012010BD06490E20FEF7E0FBEFE700BF86100020F00F00206007002067
:204B4000B06400002C64000030B50E4B1C6883B0B4B1FEF76FFB0546FEF780FB01460D20C9
:204B60000191FEF7D1FB00900E20FEF7CDFBDDE900210346A446284603B0BDE83040604770
:204B800003B030BDEC0F0020014B1860704700BFEC0F0020704700BF704700BF0020704742
:204BA000002070470020704701207047704700BF0120704701207047704700BF00207047FC
:204BC000704700BF00207047704700BF704700BF002070470120704701207047002070473E
:204BE000704700BF704700BFF8B5038804463BB1612B1ED12D48FDF795FBF0B90120F8BD68
:204C00002B4A2C4B2C4911602C4869221A80FFF7BBFF2B4B254803214FF48072C3F820174B
:204C2000C3F80C250C21FDF75FFB612323800120F8BD002303800320F8BD224D1E4E1B4854
:204C4000FDF766FB2B783370FBF7DCFC1E4904220860701C01F010F92B78321D43F010033C
:204C600006F1680003EB430103EB81035F3303F0FF0302F8013F8242F4D10D4B0E491868B8
:204C80000F4E692201F0F8F80A4B69221A800F4B4FF48077DB68C6F8087500209847C6F802
:204CA0000C752B7801332B70BFE700BF60100020F00F002086100020F40F0020E54B0000E4
:204CC00000030050A010002070100020D464000053B94AB9002908BF00281CBF4FF0FF3168
:204CE0004FF0FF3000F074B9ADF1080C6DE904CE00F006F8DDF804E0DDE9022304B0704752
:204D00002DE9F047089D04468E46002B4DD18A42944669D9B2FA82F252B101FA02F3C2F18C
:204D2000200120FA01F10CFA02FC41EA030E94404FEA1C48210CBEFBF8F61FFA8CF708FB22
:204D400016E341EA034306FB07F199420AD91CEB030306F1FF3080F01F81994240F21C8145
:204D6000023E63445B1AA4B2B3FBF8F008FB103344EA034400FB07F7A7420AD91CEB04045C
:204D800000F1FF3380F00A81A74240F207816444023840EA0640E41B00261DB1D4400023D6
:204DA000C5E900433146BDE8F0878B4209D9002D00F0EF800026C5E9000130463146BDE8CD
:204DC000F087B3FA83F6002E4AD18B4202D3824200F2F980841A61EB030301209E46002DFA
:204DE000E0D0C5E9004EDDE702B9FFDEB2FA82F2002A40F09280A1EB0C014FEA1C471FFAD1
:204E00008CFE0126200CB1FBF7F307FB131140EA01410EFB03F0884208D91CEB010103F1E9
:204E2000FF3802D2884200F2CB804346091AA4B2B1FBF7F007FB101144EA01440EFB00FE2E
:204E4000A64508D91CEB040400F1FF3102D2A64500F2BB800846A4EB0E0440EA03409CE78B
:204E6000C6F12007B34022FA07FC4CEA030C20FA07F401FA06F31C43F9404FEA1C4900FAC4
:204E800006F3B1FBF9F8200C1FFA8CFE09FB181140EA014108FB0EF0884202FA06F20BD971
:204EA0001CEB010108F1FF3A80F08880884240F28580A8F102086144091AA4B2B1FBF9F0E8
:204EC00009FB101144EA014100FB0EFE8E4508D91CEB010100F1FF346CD28E456AD90238C7
:204EE000614440EA0840A0FB0294A1EB0E01A142C846A64656D353D05DB1B3EB080261EBA4
:204F00000E0101FA07F722FA06F3F1401F43C5E9007100263146BDE8F087C2F12003D8401B
:204F20000CFA02FC21FA03F3914001434FEA1C471FFA8CFEB3FBF7F007FB10360B0C43EAE7
:204F4000064300FB0EF69E4204FA02F408D91CEB030300F1FF382FD29E422DD90238634457
:204F60009B1B89B2B3FBF7F607FB163341EA034106FB0EF38B4208D91CEB010106F1FF3804
:204F800016D28B4214D9023E6144C91A46EA004638E72E46284605E70646E3E61846F8E6F3
:204FA0004B45A9D2B9EB020864EB0C0E0138A3E74646EAE7204694E74046D1E7D0467BE718
:204FC000023B614432E7304609E76444023842E7704700BF38B5104B1D68AB6B0446B3B956
:204FE000182000F093F80246A86320B90B4B0C48422100F05BF80B490B4BC0E900130B4BC6
:2050000083600B23838100210120C2E90401AB6B00221C615A6138BD00000020BC650000E3
:20502000D36500000E33CDAB34126DE6ECDE0500164B10B51C68A36BB3B9182000F066F86D
:20504000A06328B90246124B12484E2100F02EF8114A124BC0E90023114B83600B238381F3
:2050600001220023C0E90423A46B0E4A206963690D49424301FB0322A0FB0101431C42EB39
:205080000100C4E9043020F0004010BD00000020BC650000D36500000E33CDAB34126DE646
:2050A000ECDE05002DF451582D7F954C1FB514461A46094B1B680546D8684CB1074B0091FA
:2050C000CDE9013406492B4600F00EF800F078FF044B1C46F3E700BF000000202D660000CB
:2050E0003A660000686600000EB403B5014603AB054853F8042B0068019300F0EFF802B087
:205100005DF804EB03B0704700000020024B0146186800F06FB800BF0000002037B50029A2
:2051200044D051F8043C0190002BA1F10404B8BFE41800F0BBFD1E4A0198136833B9636036
:20514000146003B0BDE8304000F0B6BDA34208D9256861198B4201BF19685B68491921602F
:20516000EDE71A465B680BB1A342FAD911685518A5420BD1246821445418A3421160E0D1B7
:205180001C685B68536021441160DAE702D90C230360D6E7256861198B4204BF19685B6879
:2051A000636004BF491921605460CAE703B030BD7810002070B50E4E0C463168054611B958
:2051C00000F0E2FA30602146284600F0DDFA431C0AD0C41C24F00304A04207D0211A284641
:2051E00000F0D2FA013001D14FF0FF34204670BD7C1000202DE9F041CD1C25F003050835B5
:205200000C2D38BF0C25002D074601DBA94205D90C233B6000263046BDE8F0812E4E00F026
:2052200045FD33681C4634BB29463846FFF7C2FF431C04464DD134682646002E40D1236803
:205240003146384604EB030800F09EFA80453AD1216803356D1A25F0030508350C2D38BF35
:205260000C2529463846FFF7A5FF01302BD023682B4423600EE02268521B1ED40B2A16D9D2
:205280006119A342256018BF5960636808BF316062514B60384604F10B0600F00DFD26F085
:2052A0000706231DF21AB6D09B1BA350B3E76268A3420CBF32605A60ECE723466468B2E765
:2052C00034467668B9E70C233B60384600F0F4FCA1E72560DEE700BF781000202DE9F04F20
:2052E0000D469DB014469846064618B183690BB900F01EFC894B9D421BD175686B6ED907D2
:2053000005D4AB899A0502D4A86D00F096FEAB891B0701D52B69EBB92946304600F096FAA9
:20532000C0B16B6EDC070ED54FF0FF301DB0BDE8F08F7B4B9D4201D1B568DFE7794B9D4201
:2053400008BFF568DAE7AB899805EDD4A86D00F075FEE9E70023099320238DF82930CDF8E9
:205360000C803023DFF8C0818DF82A304FF0010923469A4613F8012B0AB1252AF9D1BAEB15
:20538000040B0BD05B4622462946304600F099FD013000F0AA80099A5A4409929AF80030C6
:2053A000002B00F0A28000234FF0FF32CDE905230AF1010A049307938DF853301A935446B9
:2053C000052214F8011B5848FAF71AFF049AD8B9D10644BF20238DF85330130744BF2B2315
:2053E0008DF853309AF800302A2B15D0079A544600204FF00A0C214611F8013B303B092BAE
:205400004ED9B0B1079214E0A0EB080309FA03F313430493A246D2E7039B191D1B6803916F
:20542000002BBBBF5B4242F0020207930793B8BF049223782E2B0CD163782A2B35D1039B0E
:205440001A1D1B680392002BB8BF4FF0FF3302340593DFF8E4A0217803225046FAF7D0FEAE
:2054600040B14023A0EB0A0003FA00F0049B03430134049314F8011B2C488DF82810062224
:20548000FAF7BEFE00283FD0294B1BBB039B073323F0070308330393099B3B44099367E70B
:2054A0000CFB02320C460120A5E700230134059319464FF00A0C204610F8012B303A092AD7
:2054C00003D9002BC5D00591C3E70CFB012104460123F0E703AB00932A46164B04A930464D
:2054E000AFF300800746781CD6D16B6ED90705D4AB899A0502D4A86D00F0A0FDAB895B0690
:205500003FF512AF099811E703AB00932A46094B04A9304600F012F8E4E700BF7C65000070
:205520009C6500005C650000696600007366000000000000C35E00006F6600002DE9FF47AF
:205540000F7E0C9D782F914680460C469A4601F1430207D8622F0AD8002F00F0D880582F18
:2055600000F0A38004F1420584F842703AE0A7F16303152BF6D801A151F823F0D555000060
:20558000E955000065550000655500006555000065550000E9550000655500006555000033
:2055A0006555000065550000F556000019560000D7560000655500006555000017570000AE
:2055C00065550000195600006555000065550000DF5600002B681A1D1B682A6004F14205E6
:2055E00084F842300123A3E020682968060601F104030AD50E682B60002E03DA2D23764205
:2056000084F843305E480A2319E00E682B6010F0400F18BF36B2EFE72B682068191D296010
:20562000010601D51E6802E04606FBD51E8854486F2F0CBF08230A23002184F84310656849
:20564000A560002DA2BF216821F0040121600EB9002D4DD01546B6FBF3F103FB1167C75DFC
:2056600005F8017D3746BB420E46F4D9082B0BD12368DE0708D5236961689942DEBF302398
:2056800005F8013C05F1FF35521B2261CDF800A04B4603AA2146404600F025FC01304CD1C7
:2056A0004FF0FF3004B0BDE8F087354881F845702968236851F8046B29601D0614D5DF07B2
:2056C00044BF43F0200323601EB9236823F0200323601023B0E7236843F02003236078230A
:2056E000284884F84530E3E7590648BFB6B2E6E71546BBE72B6826686169181D2860350604
:205700001B6801D5196002E07006FBD51980002323611546BAE72B681A1D2A601D686268B0
:2057200000212846FAF76CFD08B1401B606063682361002384F84330A8E723692A46494631
:205740004046D0470130ABD023689B0713D4E068039B9842B8BF1846A4E7012332464946A1
:205760004046D04701309BD00135E36803995B1AAB42F2DCEBE7002504F11906F5E700BFFD
:205780007A6600008B66000038B5064D0023044608462B60FEF7DAF9431C02D12B6803B171
:2057A000236038BD74100020F8B50E461446054618B183690BB900F0BBF9214B9C422BD1C4
:2057C0006C68A369A360A3891A072FD523696BB323692068C01A6369F6B28342374604DC67
:2057E0002146284600F026F930BBA368013BA36023685A1C22601E7063690130834204D0E9
:20580000A389DB0706D50A2E04D12146284600F011F988B93846F8BD0A4B9C4201D1AC6836
:20582000CFE7094B9C4208BFEC68CAE72146284600F00CF80028CBD04FF0FF37EAE700BF23
:205840007C6500009C6500005C650000324B70B51D6806460C4625B1AB6913B9284600F0CC
:2058600067F92E4B9C420FD16C68A389B4F90C2019072CD4DD0611D40923336042F040039C
:20588000A3814FF0FF303EE0254B9C4201D1AC68EBE7244B9C4208BFEC68E6E7580712D5D7
:2058A000616B41B104F14403994202D03046FFF735FC00236363A38923F02403A38100230E
:2058C000636023692360A38943F00803A38123694BB9A38903F42073B3F5007F03D02146C1
:2058E000304600F0A3F9A089B4F90C2010F001030AD00023A36063695B42A361236943B9AB
:2059000010F08000BAD170BD810758BF6369A360F4E70020F7E700BF000000207C65000048
:205920009C6500005C6500008A892DE9F041054610070C4658D44B68002B05DC0B6C002B0A
:2059400002DC0020BDE8F081E66A002EF9D0002312F480522F682B6032D0606DA3895A0773
:2059600005D56368C01A636B0BB1236CC01A00230246E66A216A2846B047431CA38906D1A8
:2059800029681D292CD82A4ACA40D60728D500226260D9042269226004D5421C01D12B686A
:2059A00003B96065616B2F600029CAD004F14403994202D02846FFF7B1FB00206063C1E7C4
:2059C000216A01232846B047411CC7D12B68002BC4D01D2B01D0162B01D12F60B1E7A389ED
:2059E00043F04003A381ADE70F69002FA9D093070E6808BF4B690F6018BF0023A6EB0708C5
:205A00008B60B8F1000F9CDD216AA66A43463A462846B047002806DCA38943F04003A38191
:205A20004FF0FF308EE70744A8EB0008E9E700BF0100402038B50B6905460C4613B90025BE
:205A4000284638BD18B183690BB900F071F8144B9C421BD16C68B4F90C30002BEFD0626E71
:205A6000D00704D4990502D4A06D00F0E6FA28462146FFF759FF636EDA070546E0D4A38926
:205A80009B05DDD4A06D00F0D9FAD9E7054B9C4201D1AC68DFE7044B9C4208BFEC68DAE742
:205AA0007C6500009C6500005C650000002310B50446C0E90033C0E90433836081814366C7
:205AC000C2818361194608225C3000F0BDF9054B6362054BA362054BE362054B2462236389
:205AE00010BD00BFDD600000FF600000376100005B610000014900F080BA00BF355A000068
:205B0000014800F09ABA00BFA2100020014800F095BA00BFA2100020014800F08EBA00BF0E
:205B2000A3100020014800F089BA00BFA310002010B50446FFF7F0FFA3691BB1BDE81040C3
:205B4000FFF7F0BFC4E912332365134B134A1B68A262A34204BF0123A361204600F020F8A6
:205B60006060204600F01CF8A060204600F018F80022E06004216068FFF798FFA06801228E
:205B80000921FFF793FFE06802221221FFF78EFF0123A361D2E700BF7C610000F55A000065
:205BA000F8B50746FFF7ACFF1E4B1E68B36913B93046FFF7BDFF4836D6E90134013B03D5C5
:205BC00033680BB33668F7E7B4F90C50D5B9164BE36004F15800656600F02EFAFFF796FFFA
:205BE000C4E90155C4E904552560A5610822294604F15C0000F028F9C4E90D55C4E91255F3
:205C00002046F8BD6834D9E70421384600F0DFF9044630600028D5D1FFF778FF0C233B60C3
:205C2000EEE700BF7C6100000100FFFF8B8973B59D0706460C4607D504F147032360236154
:205C40000123636102B070BD01AB6A4600F0F7F9009905463046FFF7CDFA48B9B4F90C3040
:205C60009A05EFD423F0030343F00203A381E3E70D4BB362A389206043F08003A381009BF5
:205C80006361019B20615BB1B4F90E10304600F067F828B1A38923F0030343F00103A3810E
:205CA000A0890543A581CDE7F55A0000014800F0C4B900BFA1100020014800F0BFB900BF94
:205CC000A1100020024B0146186800F0DDB900BF0000002038B5074D002304460846114627
:205CE0002B6000F091F8431C02D12B6803B1236038BD00BF7410002038B5074D0446084673
:205D0000114600222A601A4600F096F8431C02D12B6803B1236038BD7410002038B5064DCD
:205D20000023044608462B6000F04EF8431C02D12B6803B1236038BD7410002038B5074D11
:205D400000230446084611462B6000F045F8431C02D12B6803B1236038BD00BF7410002025
:205D600038B5064D0023044608462B6000F044F8431C02D12B6803B1236038BD74100020DC
:205D800038B5074D04460846114600222A601A4600F042F8431C02D12B6803B1236038BDAC
:205DA0007410002038B5074D04460846114600222A601A4600F038F8431C02D12B6803B16A
:205DC000236038BD74100020024B58221A604FF0FF30704774100020024B58221A604FF01D
:205DE000FF30704774100020024B58221A604FF0FF30704774100020024B58221A600020AE
:205E0000704700BF74100020024B58221A604FF0FF30704774100020024B58221A604FF0DE
:205E2000FF30704774100020024B58221A604FF0FF30704774100020024B58221A604FF04E
:205E4000FF3070477410002002440346934200D1704703F8011BF9E710B5013902449042BE
:205E600001D1002005E0037811F8014FA34201D0181B10BD0130F2E70A44914200F1FF3373
:205E800000D1704710B511F8014B03F8014F9142F9D110BD9368013B002B10B4936008DAB0
:205EA0009469A34201DB0A2903D15DF8044BFFF77BBC1368581C1060197008465DF8044B72
:205EC0007047F8B506460F461446D518AC4201D1002007E014F8011B3A463046FFF7DAFFC2
:205EE000431CF3D1F8BD2DE9F047164699468A680B69DDF820809342B8BF1346336091F8A6
:205F0000432007460C460AB1013333602368990642BF336802333360256815F0060506D1FB
:205F200004F1190AE36832689B1AAB4226DC94F84320131E226818BF012392062BD404F18F
:205F4000430249463846C04701301ED02368E568326803F00603042B08BFAD1AA368226908
:205F60000CBF25EAE57500259342C4BF9B1AED1800261A34B5421AD1002008E0012352469C
:205F800049463846C047013003D14FF0FF30BDE8F0870135C6E7E1185A1C302081F8430000
:205FA000224494F8451082F843100233C7E70123224649463846C0470130E6D00136D9E76C
:205FC00008B50620FFF77EFE0120FAF7FFF970B568224D1E55430E4605F17401FFF70AF9F8
:205FE000044640B10021C0E900160C30A06005F16802FFF729FF204670BD2DE9F84306469C
:20600000884600F148040027D4E90195B9F1010905D52468002CF7D13846BDE8F883AB891B
:20602000012B07D9B5F90E30013303D029463046C04707436835E9E770477047704770B574
:206040000E46B1F90E10002996B014461D4608DAB6F90C3000222A601A0610D44FF4806355
:206060000EE06A46FFF76AFE0028F1DB019A02F47042A2F500535A425A412A60EEE740230A
:206080000020236016B070BD1F2938B504460D4604D9162303604FF0FF3038BD426C12B14B
:2060A00052F821304BB9204600F016F82A4601462046BDE83840FFF70DBE012B0AD0591C67
:2060C00003D1162303600120E7E7002442F82540284698470020E0E7FFF786BE10B50C4619
:2060E000B1F90E10FFF75EFE0028ABBF636DA3891B1823F48053ACBF6365A38110BD2DE9A1
:20610000F0411F468B89DB0505460C46164605D5B1F90E1002230022FFF732FEA389B4F914
:206120000E1023F48053A38132463B462846BDE8F041FFF7E1BD10B50C46B1F90E10FFF78D
:206140001FFE431CA38915BF606523F4805343F48053A38118BFA38110BDB1F90E10FFF760
:20616000DDBD0000F8B500BFF8BC08BC9E467047F8B500BFF8BC08BC9E4670470400002063
:206180000D00010E00010F0001100001427574746F6E203400000000427574746F6E203322
:2061A00000000000427574746F6E203200000000427574746F6E20310000000054656D70AE
:2061C0006572617475726500BC610000850400006D04000081040000FF0006000000000026
:2061E00000B000400B00030001000000D0070000060000006E5246353238343020494545C7
:2062000045000000455252005B252D34733A20252D3130735D200000546F6F206C6F6E67FD
:206220003A2025752062797465732C206D61782025750A0054583A20746F6F206C6F6E67A5
:2062400020282575206279746573290A000000006E524635323834302049454545205246E9
:206260002064726976657200410D0000290C0000B90E0000AD0F0000490B0000D10D00003A
:20628000210A0000810A0000190D0000550800006508000001100000A90A00008D090000FE
:2062A0004D61696E00000000494E464F000000005374617274696E6720436F6E74696B69F0
:2062C0002D4E472D72656C656173652F76342E372D36362D676336626631626462310A008E
:2062E0002D20526F7574696E673A2025730A00002D204E65743A2025730A00002D204D4122
:20630000433A2025730A00002D203830322E31352E342050414E49443A20307825303478D2
:206320000A0000002D203830322E31352E342044656661756C74206368616E6E656C3A203E
:2063400025750A004E6F64652049443A2025750A000000004C696E6B2D6C6179657220610F
:206360006464726573733A20000000004374696D65722070726F6365737300004576656E2D
:20638000742074696D657200284E554C4C204C4C20616464722900002E000000253032781C
:2063A00000000000537461636B000000436865636B20696E20696E636F6E73697374656E45
:2063C000742073746174653A20256C642076732E20256C640A000000436865636B2066619E
:2063E000696C65643A20256C642076732E20256C640A0000537461636B20636865636B0046
:2064000053656E736F727300427574746F6E2048414C2070726F636573730000536572696C
:20642000616C206472697665720000000000000000000000453B00003D3B0000353900007D
:2064400030313233343536373839616263646566000000003031323334353637383941424A
:20646000434445460000000030580000307800002D0000002B00000020000000286E756CEB
:206480006C29000025000000202020202020202020202020202020203030303030303030C2
:2064A000303030303030303043534D4100000000A8640000FD490000F9490000354A000025
:2064C000A1490000AD490000B94900006E756C6C6E657400CC640000E94A0000494B0000E1
:2064E000F54A00006E756C6C726F7574696E6700E4640000954B0000994B00009D4B0000A6
:20650000D14B0000A14B0000A54B0000E14B0000A94B0000D54B0000AD4B0000C14B00003F
:20652000B14B0000D94B0000B54B0000DD4B0000C54B0000B94B0000C94B0000CD4B0000D3
:20654000BD4B0000436C69636B657220636C69656E7400008802002000000000000000002D
:2065600000000000000000000000000000000000000000000000000000000000000000001B
:206580000000000000000000000000000000000000000000000000000000000000000000FB
:2065A000000000000000000000000000000000000000000000000000000000005245454EB1
:2065C00054206D616C6C6F6320737563636565646564002F746D702F6A656E6B696E732D3C
:2065E0004743432D31302D706970656C696E652D3333385F32303231313031385F3136330B
:20660000343531363139352F7372632F6E65776C69622F6E65776C69622F6C6962632F73C9
:2066200074646C69622F72616E642E63002C2066756E6374696F6E3A200061737365727448
:20664000696F6E2022257322206661696C65643A2066696C6520222573222C206C696E6589
:20666000202564257325730A00232D302B2000686C4C006566674546470030313233343519
:20668000363738394142434445460030313233343536373839616263646566000000000025
:2066A000409CFF7F0100000004000020000000007C6500009C6500005C65000000000000B8
:2066C0000000000000000000000000000000000000000000000000000000000000000000BA
:2066E00000000000000000000000000000000000000000000000000000000000000000009A
:20670000000000000000000000000000000000000000000000000000000000000000000079
:20672000000000000000000000000000000000000000000000000000000000000000000059
:20674000000000000000000000000000B061000001000B000100000000000000000000001B
:20676000000000000000000000000000000000000000000000000000000000000000000019
:2067800000000000000000000000000000000000000000000000000000000000A4610000F4
:2067A00001000C0001000000000100000000000000000000000000000000000000000000CA
:2067C0000000000000000000000000000000000000000000000000000000000000000000B9
:2067E000000000000000000000000000986100000100180001000000000200000000000084
:20680000000000000000000000000000000000000000000000000000000000000000000078
:20682000000000000000000000000000000000000000000000000000000000008C6100006B
:2068400001001900010000000003000064000020B400002004010020540100200000000028
:20686000C8610000000000000000000050620000450E00000000000000001A0102140214A3
:206880000090D003000000006C630000FD1F000000000000000000007C630000B5210000F5
:2068A000000000000300000000000000F46300001D280000000000000000000000640000D5
:2068C000152B00000000000000000000086400003D2C000000000000000000001C64000023
:2068E000912F000000000000040008003408002014080020AC0008009C0D00203C08002053
:20690000A8100020853B0000000000000C000800040F0020A40E002038000200800F0020DD
